{
  "_format": "hh-sol-artifact-1",
  "contractName": "SepoliaBridge",
  "sourceName": "contracts/SepoliaBridge.sol",
  "abi": [
    {
      "inputs": [
        {
          "internalType": "address",
          "name": "_token",
          "type": "address"
        },
        {
          "internalType": "address",
          "name": "_relayer",
          "type": "address"
        }
      ],
      "stateMutability": "nonpayable",
      "type": "constructor"
    },
    {
      "anonymous": false,
      "inputs": [
        {
          "indexed": true,
          "internalType": "address",
          "name": "to",
          "type": "address"
        },
        {
          "indexed": false,
          "internalType": "uint256",
          "name": "amount",
          "type": "uint256"
        }
      ],
      "name": "MintedFromHelios",
      "type": "event"
    },
    {
      "inputs": [
        {
          "internalType": "address",
          "name": "to",
          "type": "address"
        },
        {
          "internalType": "uint256",
          "name": "amount",
          "type": "uint256"
        }
      ],
      "name": "mintTo",
      "outputs": [],
      "stateMutability": "nonpayable",
      "type": "function"
    },
    {
      "inputs": [],
      "name": "relayer",
      "outputs": [
        {
          "internalType": "address",
          "name": "",
          "type": "address"
        }
      ],
      "stateMutability": "view",
      "type": "function"
    },
    {
      "inputs": [],
      "name": "token",
      "outputs": [
        {
          "internalType": "address",
          "name": "",
          "type": "address"
        }
      ],
      "stateMutability": "view",
      "type": "function"
    }
  ],
  "bytecode": "0x608060405234801561001057600080fd5b506040516105cc3803806105cc8339818101604052810190610032919061011d565b816000806101000a81548173ffffffffffffffffffffffffffffffffffffffff021916908373ffffffffffffffffffffffffffffffffffffffff16021790555080600160006101000a81548173ffffffffffffffffffffffffffffffffffffffff021916908373ffffffffffffffffffffffffffffffffffffffff160217905550505061015d565b600080fd5b600073ffffffffffffffffffffffffffffffffffffffff82169050919050565b60006100ea826100bf565b9050919050565b6100fa816100df565b811461010557600080fd5b50565b600081519050610117816100f1565b92915050565b60008060408385031215610134576101336100ba565b5b600061014285828601610108565b925050602061015385828601610108565b9150509250929050565b6104608061016c6000396000f3fe608060405234801561001057600080fd5b50600436106100415760003560e01c8063449a52f8146100465780638406c07914610062578063fc0c546a14610080575b600080fd5b610060600480360381019061005b91906102f0565b61009e565b005b61006a61020d565b604051610077919061033f565b60405180910390f35b610088610233565b604051610095919061033f565b60405180910390f35b600160009054906101000a900473ffffffffffffffffffffffffffffffffffffffff1673ffffffffffffffffffffffffffffffffffffffff163373ffffffffffffffffffffffffffffffffffffffff161461012e576040517f08c379a0000000000000000000000000000000000000000000000000000000008152600401610125906103b7565b60405180910390fd5b60008054906101000a900473ffffffffffffffffffffffffffffffffffffffff1673ffffffffffffffffffffffffffffffffffffffff166340c10f1983836040518363ffffffff1660e01b81526004016101899291906103e6565b600060405180830381600087803b1580156101a357600080fd5b505af11580156101b7573d6000803e3d6000fd5b505050508173ffffffffffffffffffffffffffffffffffffffff167ffc2a8a8bc269ebe33e3db7c0ff46b4b69477c8ecd2e52cab4f54283b9156e5e282604051610201919061040f565b60405180910390a25050565b600160009054906101000a900473ffffffffffffffffffffffffffffffffffffffff1681565b60008054906101000a900473ffffffffffffffffffffffffffffffffffffffff1681565b600080fd5b600073ffffffffffffffffffffffffffffffffffffffff82169050919050565b60006102878261025c565b9050919050565b6102978161027c565b81146102a257600080fd5b50565b6000813590506102b48161028e565b92915050565b6000819050919050565b6102cd816102ba565b81146102d857600080fd5b50565b6000813590506102ea816102c4565b92915050565b6000806040838503121561030757610306610257565b5b6000610315858286016102a5565b9250506020610326858286016102db565b9150509250929050565b6103398161027c565b82525050565b60006020820190506103546000830184610330565b92915050565b600082825260208201905092915050565b7f4e6f7420617574686f72697a6564000000000000000000000000000000000000600082015250565b60006103a1600e8361035a565b91506103ac8261036b565b602082019050919050565b600060208201905081810360008301526103d081610394565b9050919050565b6103e0816102ba565b82525050565b60006040820190506103fb6000830185610330565b61040860208301846103d7565b9392505050565b600060208201905061042460008301846103d7565b9291505056fea2646970667358221220995704e78f805ec8625cf849d5b561fe59116db555bf8037c61034f704a8f9b064736f6c63430008180033",
  "linkReferences": {},
  "deployedLinkReferences": {}
}